:040000008FEF00F08E
:1000080000C015F0F2A40ED016C017F035D8162A85
:100018001650090AD8B4166A0B0ED76EDC0ED66EC7
:10002800F29413D0F2A208D0D592D584D58E16C0FA
:1000380017F022D8F29209D0F0A007D0D582D59433
:10004800D58E16C017F018D8F09015C000F0110022
:10005800040ED56E0B0ED76EDC0ED66EF29412001F
:10006800F28EF288F086F28AD08EF184F08CF292C9
:08007800F090F18CF18A1200F6
:100080001FD03F0E8C6E3BD0060E8C6E38D05B0EB0
:100090008C6E35D04F0E8C6E32D0660E8C6E2FD09B
:1000A0006D0E8C6E2CD07D0E8C6E29D0070E8C6E52
:1000B00026D07F0E8C6E23D06F0E8C6E20D01FD07A
:1000C0001750000ADEE01750010ADEE01750020A5E
:1000D000DEE01750030ADEE01750040ADEE0175096
:1000E000050ADEE01750060ADEE01750070ADEE0D8
:1000F0001750080ADEE01750090ADEE0E0D71200C8
:100100000900F5CFE6FF0006FBE10106F9E1120068
:0E0110000F0EC11293809382956A836A1200CB
:0C011E00166AF7DF9ADFA1DFFFD7FFD7DA
:020000040030CA
:0E000000000C1F1EFF8381FF0FC00FE00F409A
:00000001FF
